{
  "_format": "hh-sol-artifact-1",
  "contractName": "Guac",
  "sourceName": "contracts/Guac.sol",
  "abi": [
    {
      "inputs": [],
      "stateMutability": "nonpayable",
      "type": "constructor"
    },
    {
      "anonymous": false,
      "inputs": [
        {
          "indexed": true,
          "internalType": "address",
          "name": "owner",
          "type": "address"
        },
        {
          "indexed": true,
          "internalType": "address",
          "name": "spender",
          "type": "address"
        },
        {
          "indexed": false,
          "internalType": "uint256",
          "name": "value",
          "type": "uint256"
        }
      ],
      "name": "Approval",
      "type": "event"
    },
    {
      "anonymous": false,
      "inputs": [
        {
          "indexed": true,
          "internalType": "address",
          "name": "from",
          "type": "address"
        },
        {
          "indexed": true,
          "internalType": "address",
          "name": "to",
          "type": "address"
        },
        {
          "indexed": false,
          "internalType": "uint256",
          "name": "value",
          "type": "uint256"
        }
      ],
      "name": "Transfer",
      "type": "event"
    },
    {
      "inputs": [],
      "name": "INITIAL_SUPPLY",
      "outputs": [
        {
          "internalType": "uint256",
          "name": "",
          "type": "uint256"
        }
      ],
      "stateMutability": "view",
      "type": "function"
    },
    {
      "inputs": [
        {
          "internalType": "address",
          "name": "owner",
          "type": "address"
        },
        {
          "internalType": "address",
          "name": "spender",
          "type": "address"
        }
      ],
      "name": "allowance",
      "outputs": [
        {
          "internalType": "uint256",
          "name": "",
          "type": "uint256"
        }
      ],
      "stateMutability": "view",
      "type": "function"
    },
    {
      "inputs": [
        {
          "internalType": "address",
          "name": "spender",
          "type": "address"
        },
        {
          "internalType": "uint256",
          "name": "amount",
          "type": "uint256"
        }
      ],
      "name": "approve",
      "outputs": [
        {
          "internalType": "bool",
          "name": "",
          "type": "bool"
        }
      ],
      "stateMutability": "nonpayable",
      "type": "function"
    },
    {
      "inputs": [
        {
          "internalType": "address",
          "name": "account",
          "type": "address"
        }
      ],
      "name": "balanceOf",
      "outputs": [
        {
          "internalType": "uint256",
          "name": "",
          "type": "uint256"
        }
      ],
      "stateMutability": "view",
      "type": "function"
    },
    {
      "inputs": [
        {
          "internalType": "uint256",
          "name": "amount",
          "type": "uint256"
        }
      ],
      "name": "burn",
      "outputs": [],
      "stateMutability": "nonpayable",
      "type": "function"
    },
    {
      "inputs": [
        {
          "internalType": "address",
          "name": "account",
          "type": "address"
        },
        {
          "internalType": "uint256",
          "name": "amount",
          "type": "uint256"
        }
      ],
      "name": "burnFrom",
      "outputs": [],
      "stateMutability": "nonpayable",
      "type": "function"
    },
    {
      "inputs": [
        {
          "internalType": "address",
          "name": "uniswapV2PairAddress",
          "type": "address"
        },
        {
          "internalType": "uint256",
          "name": "amount",
          "type": "uint256"
        }
      ],
      "name": "burnUniswapV2LPTokens",
      "outputs": [],
      "stateMutability": "nonpayable",
      "type": "function"
    },
    {
      "inputs": [],
      "name": "decimals",
      "outputs": [
        {
          "internalType": "uint8",
          "name": "",
          "type": "uint8"
        }
      ],
      "stateMutability": "view",
      "type": "function"
    },
    {
      "inputs": [
        {
          "internalType": "address",
          "name": "spender",
          "type": "address"
        },
        {
          "internalType": "uint256",
          "name": "subtractedValue",
          "type": "uint256"
        }
      ],
      "name": "decreaseAllowance",
      "outputs": [
        {
          "internalType": "bool",
          "name": "",
          "type": "bool"
        }
      ],
      "stateMutability": "nonpayable",
      "type": "function"
    },
    {
      "inputs": [
        {
          "internalType": "address",
          "name": "spender",
          "type": "address"
        },
        {
          "internalType": "uint256",
          "name": "addedValue",
          "type": "uint256"
        }
      ],
      "name": "increaseAllowance",
      "outputs": [
        {
          "internalType": "bool",
          "name": "",
          "type": "bool"
        }
      ],
      "stateMutability": "nonpayable",
      "type": "function"
    },
    {
      "inputs": [],
      "name": "name",
      "outputs": [
        {
          "internalType": "string",
          "name": "",
          "type": "string"
        }
      ],
      "stateMutability": "view",
      "type": "function"
    },
    {
      "inputs": [],
      "name": "symbol",
      "outputs": [
        {
          "internalType": "string",
          "name": "",
          "type": "string"
        }
      ],
      "stateMutability": "view",
      "type": "function"
    },
    {
      "inputs": [],
      "name": "totalSupply",
      "outputs": [
        {
          "internalType": "uint256",
          "name": "",
          "type": "uint256"
        }
      ],
      "stateMutability": "view",
      "type": "function"
    },
    {
      "inputs": [
        {
          "internalType": "address",
          "name": "to",
          "type": "address"
        },
        {
          "internalType": "uint256",
          "name": "amount",
          "type": "uint256"
        }
      ],
      "name": "transfer",
      "outputs": [
        {
          "internalType": "bool",
          "name": "",
          "type": "bool"
        }
      ],
      "stateMutability": "nonpayable",
      "type": "function"
    },
    {
      "inputs": [
        {
          "internalType": "address",
          "name": "from",
          "type": "address"
        },
        {
          "internalType": "address",
          "name": "to",
          "type": "address"
        },
        {
          "internalType": "uint256",
          "name": "amount",
          "type": "uint256"
        }
      ],
      "name": "transferFrom",
      "outputs": [
        {
          "internalType": "bool",
          "name": "",
          "type": "bool"
        }
      ],
      "stateMutability": "nonpayable",
      "type": "function"
    }
  ],
  "bytecode": "0x60806040523480156200001157600080fd5b50604080518082018252601481527f467265652047756163616d6f6c6520546f6b656e0000000000000000000000006020808301918252835180850190945260048452634755414360e01b908401528151919291620000739160039162000156565b5080516200008990600490602084019062000156565b505050620000aa336b015b6a759f4835dc24000000620000b060201b60201c565b620002c3565b6001600160a01b038216620000e25760405162461bcd60e51b8152600401620000d990620001fc565b60405180910390fd5b8060026000828254620000f6919062000254565b90915550506001600160a01b038216600081815260208190526040808220805485019055517fddf252ad1be2c89b69c2b068fc378daa952ba7f163c4a11628f55a4df523b3ef906200014a9085906200026f565b60405180910390a35050565b828054620001649062000292565b90600052602060002090601f016020900481019282620001885760008555620001d3565b82601f10620001a357805160ff1916838001178555620001d3565b82800160010185558215620001d3579182015b82811115620001d3578251825591602001919060010190620001b6565b50620001e1929150620001e5565b5090565b5b80821115620001e15760008155600101620001e6565b602080825281016200023881601f81527f45524332303a206d696e7420746f20746865207a65726f206164647265737300602082015260400190565b92915050565b634e487b7160e01b600052601160045260246000fd5b600082198211156200026a576200026a6200023e565b500190565b8181526020810162000238565b634e487b7160e01b600052602260045260246000fd5b600281046001821680620002a757607f821691505b60208210811415620002bd57620002bd6200027c565b50919050565b610dac80620002d36000396000f3fe608060405234801561001057600080fd5b50600436106100f55760003560e01c806342966c681161009757806395d89b411161006657806395d89b41146101f5578063a457c2d7146101fd578063a9059cbb14610210578063dd62ed3e1461022357600080fd5b806342966c68146101915780636175849f146101a657806370a08231146101b957806379cc6790146101e257600080fd5b806323b872dd116100d357806323b872dd146101495780632ff2e9dc1461015c578063313ce5671461016f578063395093511461017e57600080fd5b806306fdde03146100fa578063095ea7b31461011857806318160ddd14610138575b600080fd5b610102610236565b60405161010f91906107ec565b60405180910390f35b61012b610126366004610845565b6102c8565b60405161010f919061088c565b6002545b60405161010f91906108a0565b61012b6101573660046108ae565b6102e2565b61013c6b015b6a759f4835dc2400000081565b601260405161010f9190610907565b61012b61018c366004610845565b610306565b6101a461019f366004610915565b610328565b005b6101a46101b4366004610845565b610335565b61013c6101c736600461093e565b6001600160a01b031660009081526020819052604090205490565b6101a46101f0366004610845565b610448565b610102610461565b61012b61020b366004610845565b610470565b61012b61021e366004610845565b6104b6565b61013c61023136600461095f565b6104c4565b606060038054610245906109a8565b80601f0160208091040260200160405190810160405280929190818152602001828054610271906109a8565b80156102be5780601f10610293576101008083540402835291602001916102be565b820191906000526020600020905b8154815290600101906020018083116102a157829003601f168201915b5050505050905090565b6000336102d68185856104ef565b60019150505b92915050565b6000336102f08582856105a3565b6102fb8585856105e7565b506001949350505050565b6000336102d681858561031983836104c4565b61032391906109eb565b6104ef565b61033233826106d7565b50565b6000811161034257600080fd5b6040516323b872dd60e01b81526001600160a01b038316906323b872dd9061037290339030908690600401610a0c565b602060405180830381600087803b15801561038c57600080fd5b505af11580156103a0573d6000803e3d6000fd5b505050506040513d601f19601f820116820180604052508101906103c49190610a47565b5060405163226bf2d160e21b81526001600160a01b038316906389afcb44906103f1903090600401610a68565b6040805180830381600087803b15801561040a57600080fd5b505af115801561041e573d6000803e3d6000fd5b505050506040513d601f19601f820116820180604052508101906104429190610a81565b50505050565b6104538233836105a3565b61045d82826106d7565b5050565b606060048054610245906109a8565b6000338161047e82866104c4565b9050838110156104a95760405162461bcd60e51b81526004016104a090610af9565b60405180910390fd5b6102fb82868684036104ef565b6000336102d68185856105e7565b6001600160a01b03918216600090815260016020908152604080832093909416825291909152205490565b6001600160a01b0383166105155760405162461bcd60e51b81526004016104a090610b4a565b6001600160a01b03821661053b5760405162461bcd60e51b81526004016104a090610b99565b6001600160a01b0380841660008181526001602090815260408083209487168084529490915290819020849055517f8c5be1e5ebec7d5bd14f71427d1e84f3dd0314c0f7b2291e5b200ac8c7c3b925906105969085906108a0565b60405180910390a3505050565b60006105af84846104c4565b9050600019811461044257818110156105da5760405162461bcd60e51b81526004016104a090610ba9565b61044284848484036104ef565b6001600160a01b03831661060d5760405162461bcd60e51b81526004016104a090610c26565b6001600160a01b0382166106335760405162461bcd60e51b81526004016104a090610c76565b6001600160a01b0383166000908152602081905260409020548181101561066c5760405162461bcd60e51b81526004016104a090610cc9565b6001600160a01b0380851660008181526020819052604080822086860390559286168082529083902080548601905591517fddf252ad1be2c89b69c2b068fc378daa952ba7f163c4a11628f55a4df523b3ef906106ca9086906108a0565b60405180910390a3610442565b6001600160a01b0382166106fd5760405162461bcd60e51b81526004016104a090610d17565b6001600160a01b038216600090815260208190526040902054818110156107365760405162461bcd60e51b81526004016104a090610d66565b6001600160a01b0383166000818152602081905260408082208585039055600280548690039055519091907fddf252ad1be2c89b69c2b068fc378daa952ba7f163c4a11628f55a4df523b3ef906105969086906108a0565b60005b838110156107a9578181015183820152602001610791565b838111156104425750506000910152565b60006107c4825190565b8084526020840193506107db81856020860161078e565b601f01601f19169290920192915050565b602080825281016107fd81846107ba565b9392505050565b60006001600160a01b0382166102dc565b61081e81610804565b811461033257600080fd5b80356102dc81610815565b8061081e565b80356102dc81610834565b6000806040838503121561085b5761085b600080fd5b60006108678585610829565b92505060206108788582860161083a565b9150509250929050565b8015155b82525050565b602081016102dc8284610882565b80610886565b602081016102dc828461089a565b6000806000606084860312156108c6576108c6600080fd5b60006108d28686610829565b93505060206108e386828701610829565b92505060406108f48682870161083a565b9150509250925092565b60ff8116610886565b602081016102dc82846108fe565b60006020828403121561092a5761092a600080fd5b6000610936848461083a565b949350505050565b60006020828403121561095357610953600080fd5b60006109368484610829565b6000806040838503121561097557610975600080fd5b60006109818585610829565b925050602061087885828601610829565b634e487b7160e01b600052602260045260246000fd5b6002810460018216806109bc57607f821691505b602082108114156109cf576109cf610992565b50919050565b634e487b7160e01b600052601160045260246000fd5b600082198211156109fe576109fe6109d5565b500190565b61088681610804565b60608101610a1a8286610a03565b610a276020830185610a03565b610936604083018461089a565b80151561081e565b80516102dc81610a34565b600060208284031215610a5c57610a5c600080fd5b60006109368484610a3c565b602081016102dc8284610a03565b80516102dc81610834565b60008060408385031215610a9757610a97600080fd5b6000610aa38585610a76565b925050602061087885828601610a76565b602581526000602082017f45524332303a2064656372656173656420616c6c6f77616e63652062656c6f77815264207a65726f60d81b602082015291505b5060400190565b602080825281016102dc81610ab4565b602481526000602082017f45524332303a20617070726f76652066726f6d20746865207a65726f206164648152637265737360e01b60208201529150610af2565b602080825281016102dc81610b09565b602281526000602082017f45524332303a20617070726f766520746f20746865207a65726f206164647265815261737360f01b60208201529150610af2565b602080825281016102dc81610b5a565b602080825281016102dc81601d81527f45524332303a20696e73756666696369656e7420616c6c6f77616e6365000000602082015260400190565b602581526000602082017f45524332303a207472616e736665722066726f6d20746865207a65726f206164815264647265737360d81b60208201529150610af2565b602080825281016102dc81610be4565b602381526000602082017f45524332303a207472616e7366657220746f20746865207a65726f206164647281526265737360e81b60208201529150610af2565b602080825281016102dc81610c36565b602681526000602082017f45524332303a207472616e7366657220616d6f756e7420657863656564732062815265616c616e636560d01b60208201529150610af2565b602080825281016102dc81610c86565b602181526000602082017f45524332303a206275726e2066726f6d20746865207a65726f206164647265738152607360f81b60208201529150610af2565b602080825281016102dc81610cd9565b602281526000602082017f45524332303a206275726e20616d6f756e7420657863656564732062616c616e815261636560f01b60208201529150610af2565b602080825281016102dc81610d2756fea264697066735822122066cb3aa59cb33fea453556dfc574e9cf56aebd138806c78f592aabe85216df8764736f6c63430008090033",
  "linkReferences": {},
  "deployedLinkReferences": {}
}